:020000040000FA
:100000000200765388CF5389F0438901438E04EF71
:100010006012C28C758CA0758A4CC28DD28C308DCA
:10002000FD1F80EBC28C22AF88758800758D3475FA
:0A0030008B348F882243B280222215
:10003B0002010512026812003512024812028412E4
:10004B00029D12028B12005C1202921202A102029A
:10005B00A5AF885388AF758CBC758D96EF5440FE59
:07006B00EF54104E42882201
:1000730002022D120039787FE4F6D8FD7581200243
:1000830000C0020189E493A3F8E493A34003F6803C
:1000930001F208DFF48029E493A3F85407240CC881
:1000A300C333C4540F4420C8834004F4568001462C
:1000B300F6DFE4800B01020408102040809002A9BF
:1000C300E47E019360BCA3FF543F30E509541FFE57
:1000D300E493A360010ECF54C025E060A840B8E4C8
:1000E30093A3FAE493A3F8E493A3C8C582C8CAC54B
:1000F30083CAF0A3C8C582C8CAC583CADFE9DEE7DD
:1001030080BEC0E0C0D0C20320C255E5C054F02475
:1001130080603E24C0601624E07041850BC253C248
:10012300FEA201E43342C2C2C5D202803530C113FC
:1001330030020AC20220012A850AC28025D2C4C223
:1001430000801FD2C4D2C50509E5097015050880D2
:100153001185C20CC200C2C1D2C48006D203800280
:10016300D20330031A53C17F43C180C2C5C2C4C284
:10017300C1C200C203D2960509E50970020508C28F
:10018300C0D0D0D0E03212003E20802D75E340C2B3
:1001930081E4FFEFC394FF7480948050030F80F3D6
:1001A300D2813081FDE4FFEFC3940A7480948050C0
:1001B300030F80F3E4F5E380D0120218D296E4F53E
:1001C3000DF508F509850D0A750BF0120254750B30
:1001D300F012023BE50C650A60080509E5097002A7
:1001E3000508D3E5099400E50894004004D29680FD
:1001F30002B296050D7F3212000380C9E5915404C3
:100203005391FB75953875949E75933875929E43FB
:10021300910442912212026F1202761200271201F8
:10022300FF12025E12029902027D53C17F43C18015
:1002330053917FC2C5C200322000FDD200D201D249
:10024300C52000FD22E4F5A9E5A95480648070F877
:10025300222000FDD200C201D2C522758E0175890C
:100263002043884022E4F5A753D9BF22E4F5A775BC
:10027300A5402275E34075E1042275E68175A880E7
:100283002275A41075D4CF2275E34075E10522755C
:1002930089224388402275C1DD2275D5072275C1A5
:0902A300C02243981022C10200A0
:00000001FF
